:03000000020006F5
:09005F0075080075090002000398
:03000300020148AF
:10006800E582FF30E01174FE5FFEE50A6004EE42AF
:100078000922EEF4420922E50A6004EF420822EF61
:10008800F4420822AF8290A000E5084FF022AF8228
:1000980090C000E5094FF022858290C2B3C2B4D265
:1000A800B59000011200F4C2B522858290D2B3C285
:1000B800B4D2B59000011200F4C2B522758238128C
:1000C80000A090000A1200F475820F1200A09000A0
:1000D8000A1200F47582011200A090000A1200F4BE
:1000E8007582811200A090000A0200F4AE82AF83EC
:1000F8007C007D00C3EC9EED9F50147AFB7B041AB4
:10010800BAFF011BEA4B70F70CBC00E80D80E52232
:1001180075A80075B80075D0007580FF75900075DA
:10012800A0FF75B0C3750800750900750A017582CE
:100138000812006875820012008C75820002009611
:100148001201180000750A007582081200689000F4
:02015800002283
:06003500E478FFF6D8FD9F
:100013007900E94400601B7A0090015E780175A0C5
:1000230000E493F2A308B8000205A0D9F4DAF2754C
:02003300A0FF2C
:10003B007800E84400600A790175A000E4F309D860
:10004B00FC7800E84400600C7900900001E4F0A318
:04005B00D8FCD9FAFA
:0D00060075810A12015AE5826003020003B1
:04015A007582002288
:00000001FF
