:04000000020029329F
:01000B0032C2
:0100130032BA
:01001B0032B2
:03002300020000D8
:100082007801E4F27816F208F27818F27823F2781E
:050092002DF202002622
:030026000202567D
:10009700AC82AD83AEF0FF7480C0E023C0E0E4C063
:1000A700E0C0E08C828D838EF0EF1203ECAC82AD62
:1000B70083AEF0FFE58124FCF5817824E2C0E008F7
:1000C700E2C0E008E2C0E008E2C0E08C828D838EE7
:1000D700F0EF1203ECAC82AD83E58124FCF5817867
:1000E70028E4C39CF274019D08F243892043985089
:1000F7007829E2F58B7828E2F58DD28E22A298E452
:1001070033F58222AF82C2AF8F9910990280FBD25A
:10011700AF223098FD85998222AD82AE83AFF08DF4
:10012700828E838FF0120D15FC60188C820DBD0036
:10013700010EC007C006C00512010BD005D006D0BE
:100147000780DC22AE82AF83C006C0077450C0E0D0
:10015700740DC0E07480C0E0782AE2C0E008E2C015
:10016700E008E2C0E012039AE58124F8F581782AD5
:10017700E2F58208E2F58308E2F5F0020120D2AC4D
:10018700D2AF227816E4F208F27801F27818F27802
:1001970023F2FFEF2419F8E4F20FEF24F550F47F70
:1001A70000EF2402F8E4F20FEF24EB50F422782357
:1001B700E4F222AF82782EE2700AEFF4FE782DE2A5
:1001C7005EF28005782DE24FF2782D90D000E2F0B4
:1001D700227E007F00C350157C007D00C350070CB2
:1001E700BC00F90D80F60EBE00EB0F80E822AF824F
:1001F70090E000EFF0C290C291D292C29222AF82F9
:1002070090E000EFF0D290C291D292C29222758212
:10021700381201F575820F1201F57582011201F589
:100227007582801201F5002275A800C2AF75B8006B
:1002370075D0007580FF75900075A0FF75B0FF90B1
:10024700B000E4F090D000F090E000F0020215005A
:1002570012022F782E7401F27582101201BA782FCC
:100267007445F27830C4F27831C4F278327450F2BF
:1002770078337420F27834744DF278357441F2781B
:10028700367454F278377452F278387449F2783900
:100297007458F2783A7420F2783B7438F2783C74E8
:1002A70030F2783D7433F2783E7431F2783FE4F2FD
:1002B700FEFFEE242FF9E3FD60148D82C007C00610
:1002C700120205D006D0070EBE00E70F80E40080BB
:0102D700FD29
:030D500025640017
:06005800E478FFF6D8FD7C
:100036007900E94400601B7A00900D5E780175A096
:1000460000E493F2A308B8000205A0D9F4DAF27529
:02005600A0FF09
:10005E007877E84400600A790175A000E4F309D8C6
:10006E00FC7800E84400600C7900900001E4F0A3F5
:04007E00D8FCD9FAD7
:1002D800C008858108C082058105810581E508245B
:1002E800FBF8A9080909E6F708E609F708E609F797
:1002F800A808080886820886830886F0120D15FA71
:10030800A3120D15FBA3120D15FF74012AFCE43B83
:10031800FD8F06A808080886820886830886F0EC00
:10032800120D31A3ED120D31A3EE120D318A828B1D
:10033800838FF0A80808E6120D31850881D00822BD
:10034800AFF0AE83E5827844F2EE08F2EF08F27877
:100358005C7444F2E408F2746008F27840795FE271
:10036800F308E209F308E209F378437962E2F390CB
:1003780002D812054BAE82AF837844E2FB08E2FC58
:1003880008E2FD8B828C838DF0E4120D318E828F12
:100398008322C008E581F50824F87862F2E508248C
:1003A800FB785CF2E408F2744008F2E50824F8F8F7
:1003B800795FE6F308E609F308E609F39002D81234
:1003C800054BAE82AF83E50824FBF8860308860454
:1003D8000886058B828C838DF0E4120D318E828F16
:1003E80083D00822AF82AE83ADF0FC784BEFF2EEFB
:1003F80008F2ED08F2EC08F27A007B007E007F003C
:100408007D20784EE2235401FC784BE225E0F20887
:10041800E233F208E233F208E233F2EA2AFAEB3383
:10042800FBEE33FEEF33FFEC60034302017847C372
:10043800E2F5F0EA95F008E2F5F0EB95F008E2F560
:10044800F0EE95F008E2F5F0EF95F040227847D30A
:10045800E29AF4B3FAB308E29BF4B3FBB308E29E62
:10046800F4B3FEB308E29FF4FF784BE24401F2DDF7
:1004780091784BE2F58208E2F58308E2F5F008E2AC
:1004880022AF827852E2C0E008E2C0E008E2C0E0B1
:1004980012049D800C7850E2C0E008E2C0E08F8230
:1004A80022158115811581785AE22401F208E23477
:1004B80000F222AF8274302FFF24C6500C74072F2D
:1004C800FF784FE260034307208F82020489E582A8
:1004D800FFC4540FF582C0071204BBD007740F5F26
:1004E800F5820204BBAF827855E2F51508E2F516ED
:1004F80008E2F51708E2F5187859E2FA7E208A052D
:10050800ED2DFDE5182354014DFAE5152515F515D2
:10051800E51633F516E51733F517E51833F518C35F
:10052800EA9F4007EAC39FFA431501DED17855E5F3
:1005380015F208E516F208E517F208E518F27859F9
:10054800EAF222AE82AF837850EEF2EF08F2785CDE
:10055800E2FD08E2FE08E2FF7852EDF2EE08F2EF63
:1005680008F2785AE4F208F2785FE2FD08E2FE0841
:10057800E2FF8D828E838FF0120D15FC785F740177
:100588002DF2E43E08F2EF08F2ECFF7003020CD300
:10059800BF25028003020CCB7863E4F27864F2781A
:1005A80065F27866F27867F27868F27869F2786AC4
:1005B800F2786CF2F513F5147FFF7DFF785FE2F5B2
:1005C8000908E2F50A08E2F50B850982850A8385A0
:1005D8000BF0120D15F50CA385820985830A785F47
:1005E800E509F2E50A08F2E50B08F27425B50C09ED
:1005F800850C8212048902057074D0250C5077E5A9
:100608000C24C64071BFFF44BDFF417875E513F265
:10061800E51408F290000AC007C005120CF585829F
:100628000D85830ED005D007AA0C7E00EA250DFAA9
:10063800EE350EFEEA24D0F513EE34FFF514E5137B
:100648004514708578647401F20205D17875EFF26B
:10065800ED08F290000A120CF585820D85830EAB29
:100668000C7E00EB250DFBEE350EFEEB24D0FFEEE5
:1006780034FFFD0205D1742EB50C12BFFF05BDFF76
:100688000280030205D17F007D000205D1749F25F9
:100698000C5010E50C2485400A530CDF784F740188
:1006A800F28004784FE4F27420B50C0302074F740B
:1006B8002BB50C03020747742DB50C0280797442E0
:1006C800B50C030207577443B50C0302076774445B
:1006D800B50C030209267446B50C03020947744891
:1006E800B50C030205D17449B50C03020926744AF6
:1006F800B50C030205D1744CB50C02805A744FB581
:100708000C030209327450B50C030208AF7453B5D8
:100718000C0280717454B50C030205D17455B50CE4
:10072800030209397458B50C03020940745AB50C10
:10073800030205D102094E78637401F20205D178EB
:10074800657401F20205D178667401F20205D17868
:10075800687401F20205D178697401F20205D17852
:1007680068E2600C7862E214F97862F28703800D1F
:100778007862E224FEFA7862F28A0187038B821299
:10078800048902095C7862E224FDFB7862F28B013D
:10079800870209870309870619197855EAF208EBD1
:1007A800F208EEF28A828B838EF0C007C005120C25
:1007B800DD85820D85830ED005D007BFFF07BDFFFD
:1007C80004AF0DAD0E7863E2703FC3E50D9513E5F8
:1007D8000E95145034E513C3950DF509E514950EDF
:1007E800F50AAB09AE0A150974FFB50902150AEB3B
:1007F8004E6010758220C007C005120489D005D04C
:100808000780DF850913850A148F038D06C003C08E
:10081800067855E2FA08E2FB08E2FE8A828B838EAC
:10082800F0120D15FAFFD006D003EA603BC3E49B33
:1008380074808EF063F08095F0502D1BBBFF011E75
:100848008F82C006C003120489D003D0067855E20F
:10085800FA08E2FC08E2FD0ABA00010C7855EAF24F
:1008680008ECF208EDF280A57863E2700302095CF7
:10087800C3E50D9513E50E9514400302095CE513D5
:10088800C3950DF50DE514950EF50EAA0DAE0E15D2
:100898000D74FFB50D02150EEA4E70030209567568
:1008A800822012048980E47862E224FDFE7862F2F4
:1008B8008E01870209870309870619197855EAF214
:1008C80008EBF208EEF27857E2FEBE800040047BA7
:1008D800438014BE600040047B50800BBE40004043
:1008E800047B4980027B588B82C00312048975827D
:1008F8003A12048975823012048975827812048943
:10090800D003BB4902800DBB500280087856E2F53F
:10091800821204D67855E2F5821204D680367867BA
:100928007401F2786C740AF2802A786C7408F28088
:1009380023786C740AF2801C786C7410F280157835
:100948006A7401F2800E850C821204898006850D76
:1009580013850E14786AE260737862E224FCFE78EC
:1009680062F28E01870F098710098711098712190A
:1009780019197855E50FF208E510F208E511F208A3
:10098800E512F278557453F208740DF2087480F287
:100998007855E2F50F08E2F51008E2F51174012523
:1009A8000FFAE43510FBAE117855EAF208EBF208BD
:1009B800EEF2850F828510838511F0120D15FEFB6E
:1009C80070030205708B8212048980C4786CE2700F
:1009D800030205707868E260467862E214F978628A
:1009E800F287068E027B007D007E007855EAF208C9
:1009F800EBF208EDF208EEF27867E26003020A9A79
:100A08007855E2FA08E208E208E27B007D007E0001
:100A18007855EAF208EBF208EDF208EEF280737806
:100A280069E260287862E224FCFE7862F28E01872F
:100A3800020987030987050987061919197855EAEC
:100A4800F208EBF208EDF208EEF280467862E22452
:100A5800FEFE7862F28E01870309870619EEFA33E3
:100A680095E0FDFE7855EBF208EAF208EDF208EEA3
:100A7800F27867E2701C7855E2FA08E2FB08E208AF
:100A8800E27D007E007855EAF208EBF208EDF20804
:100A9800EEF27867E2603D7855E2FA08E2FB08E298
:100AA800FD08E2FE30E7297855E2FA08E2FB08E2A1
:100AB800FD08E2FEC3E49AFAE49BFBE49DFDE49E94
:100AC800FE7855EAF208EBF208EDF208EEF280043F
:100AD8007867E4F2786B7401F27974E4F50FF51035
:100AE8007859E4F2786CE2F582C0011204EDD00185
:100AF800786BE270167859E2C454F0FA7859E2C477
:100B0800540F4202E3FE4AF31980057859E2FAF3DA
:100B1800050FE4B50F020510786BE2B40100E43369
:100B2800F27855E2FA08E2FB08E2FD08E2FEEA4B39
:100B38004D4E70AC8906786DE50FF2E51008F2E5C8
:100B48001345147005751301F5147864E2703A784A
:100B580063E27035AA13AB14C006786DE2FE0E8E00
:100B6800057E00C3ED9AEE9BD0065019758220C011
:100B780006C003C002120489D002D003D0061ABAF4
:100B8800FF011B80D38A138B147867E26015758286
:100B98002DC006120489D006151374FFB51302156B
:100BA80014803D786DE2F5F008E245F06032786532
:100BB800E2601575822BC006120489D006151374DD
:100BC800FFB51302151480187866E2601375822049
:100BD800C006120489D006151374FFB51302151444
:100BE8007863E27039AC13AD148C028D031CBCFF22
:100BF800011D786DC3E29A08E29B50497864E2606F
:100C0800067A307B0080047A207B008A82C006C086
:100C180005C004120489D004D005D00680CB786DB5
:100C2800C3E2951308E295145014786DD3E2951336
:100C3800F4B3F513B308E29514F4F514800BE4F556
:100C480013F51480048C138D148E01786DE2FD0861
:100C5800E2FE8D038E041DBDFF011EEB4C6038784B
:100C68006BE2B40100E433F2786BE2700B09E3C481
:100C7800540FFC7859F28009E3FC53040F7859ECBF
:100C8800F27859E2F582C006C005C0011204BBD053
:100C980001D005D00680BB7863E27003020570AD11
:100CA80013AE148D038E041DBDFF011EEB4C7003A3
:100CB800020570758220C006C005120489D005D0CF
:100CC8000680E08F82120489020570785AE2F58264
:050CD80008E2F5832293
:0B0D53003C4E4F20464C4F41543E00E8
:100CDD00AA82AB83120D156003A380F8C3E5829A37
:100CED00F582E5839BF58322AA83AB828BF090007E
:100CFD0075E0A4F8A9F08AF0E0A429F98BF0A3E03F
:080D0D00A429F583888222224B
:0D002900758118120D4CE58260030200265F
:100D150020F71430F6148883A88220F507E6A88307
:100D250075830022E280F7E49322E02220F7113058
:100D3500F6138883A88220F509F6A8837583002217
:0B0D450080FEF280F5F0227582002293
:00000001FF
