:03000000020006F5
:09005F0075080075090002000398
:030003000200F206
:10006800AF8290A000E5084FF022AF8290C000E573
:10007800094FF022AF827E00BF01047E08800CBFCA
:1000880002047E808005BF10027E08E50A700DBF5D
:100098000805EEF4520922EEF4520822BF0804EED5
:1000A800420922EE420822AE82AF837C007D00C363
:1000B800EC9EED9F50147AFB7B041ABAFF011BEAF1
:1000C8004B70F70CBC00E80D80E52275A80075B8E8
:1000D8000075D0007580FF75900075A0FF75B0C3DE
:1000E80090A000E4F090C000F0221200D390A0008D
:1000F8007408F090000A1200AF90A0007488F09085
:10010800000A1200AF90A000E4F090000A1200AFBD
:0201180080DB8A
:06003500E478FFF6D8FD9F
:100013007900E94400601B7A0090011E780175A005
:1000230000E493F2A308B8000205A0D9F4DAF2754C
:02003300A0FF2C
:10003B007800E84400600A790175A000E4F309D860
:10004B00FC7800E84400600C7900900001E4F0A318
:04005B00D8FCD9FAFA
:0D00060075810A12011AE5826003020003F1
:04011A0075820022C8
:00000001FF
